{
	"contracts/solidity_by_example/014_RemoveArray1.sol": {
		"ArrayRemoveByShifting": {
			"abi": [
				{
					"inputs": [
						{
							"internalType": "uint256",
							"name": "",
							"type": "uint256"
						}
					],
					"name": "arr",
					"outputs": [
						{
							"internalType": "uint256",
							"name": "",
							"type": "uint256"
						}
					],
					"stateMutability": "view",
					"type": "function"
				},
				{
					"inputs": [],
					"name": "get",
					"outputs": [
						{
							"internalType": "uint256[]",
							"name": "",
							"type": "uint256[]"
						}
					],
					"stateMutability": "view",
					"type": "function"
				},
				{
					"inputs": [
						{
							"internalType": "uint256",
							"name": "_i",
							"type": "uint256"
						}
					],
					"name": "remove",
					"outputs": [],
					"stateMutability": "nonpayable",
					"type": "function"
				}
			],
			"devdoc": {
				"kind": "dev",
				"methods": {},
				"version": 1
			},
			"evm": {
				"assembly": "    /* \"contracts/solidity_by_example/014_RemoveArray1.sol\":110:500  contract ArrayRemoveByShifting{\r... */\n  mstore(0x40, 0x80)\n    /* \"contracts/solidity_by_example/014_RemoveArray1.sol\":149:182  uint[] public arr = [1,2,3,4,5,6] */\n  mload(0x40)\n  dup1\n  0xc0\n  add\n  0x40\n  mstore\n  dup1\n    /* \"contracts/solidity_by_example/014_RemoveArray1.sol\":170:171  1 */\n  0x01\n    /* \"contracts/solidity_by_example/014_RemoveArray1.sol\":149:182  uint[] public arr = [1,2,3,4,5,6] */\n  0xff\n  and\n  dup2\n  mstore\n  0x20\n  add\n    /* \"contracts/solidity_by_example/014_RemoveArray1.sol\":172:173  2 */\n  0x02\n    /* \"contracts/solidity_by_example/014_RemoveArray1.sol\":149:182  uint[] public arr = [1,2,3,4,5,6] */\n  0xff\n  and\n  dup2\n  mstore\n  0x20\n  add\n    /* \"contracts/solidity_by_example/014_RemoveArray1.sol\":174:175  3 */\n  0x03\n    /* \"contracts/solidity_by_example/014_RemoveArray1.sol\":149:182  uint[] public arr = [1,2,3,4,5,6] */\n  0xff\n  and\n  dup2\n  mstore\n  0x20\n  add\n    /* \"contracts/solidity_by_example/014_RemoveArray1.sol\":176:177  4 */\n  0x04\n    /* \"contracts/solidity_by_example/014_RemoveArray1.sol\":149:182  uint[] public arr = [1,2,3,4,5,6] */\n  0xff\n  and\n  dup2\n  mstore\n  0x20\n  add\n    /* \"contracts/solidity_by_example/014_RemoveArray1.sol\":178:179  5 */\n  0x05\n    /* \"contracts/solidity_by_example/014_RemoveArray1.sol\":149:182  uint[] public arr = [1,2,3,4,5,6] */\n  0xff\n  and\n  dup2\n  mstore\n  0x20\n  add\n    /* \"contracts/solidity_by_example/014_RemoveArray1.sol\":180:181  6 */\n  0x06\n    /* \"contracts/solidity_by_example/014_RemoveArray1.sol\":149:182  uint[] public arr = [1,2,3,4,5,6] */\n  0xff\n  and\n  dup2\n  mstore\n  pop\n  0x00\n  swap1\n  0x06\n  tag_1\n  swap3\n  swap2\n  swap1\n  tag_2\n  jump\t// in\ntag_1:\n  pop\n    /* \"contracts/solidity_by_example/014_RemoveArray1.sol\":110:500  contract ArrayRemoveByShifting{\r... */\n  callvalue\n  dup1\n  iszero\n  tag_3\n  jumpi\n  0x00\n  dup1\n  revert\ntag_3:\n  pop\n  jump(tag_4)\ntag_2:\n  dup3\n  dup1\n  sload\n  dup3\n  dup3\n  sstore\n  swap1\n  0x00\n  mstore\n  keccak256(0x00, 0x20)\n  swap1\n  dup2\n  add\n  swap3\n  dup3\n  iszero\n  tag_5\n  jumpi\n  swap2\n  0x20\n  mul\n  dup3\n  add\ntag_6:\n  dup3\n  dup2\n  gt\n  iszero\n  tag_7\n  jumpi\n  dup3\n  mload\n  dup3\n  swap1\n  0xff\n  and\n  swap1\n  sstore\n  swap2\n  0x20\n  add\n  swap2\n  swap1\n  0x01\n  add\n  swap1\n  jump(tag_6)\ntag_7:\ntag_5:\n  pop\n  swap1\n  pop\n  tag_8\n  swap2\n  swap1\n  tag_9\n  jump\t// in\ntag_8:\n  pop\n  swap1\n  jump\t// out\ntag_9:\ntag_10:\n  dup1\n  dup3\n  gt\n  iszero\n  tag_11\n  jumpi\n  0x00\n  dup2\n  0x00\n  swap1\n  sstore\n  pop\n  0x01\n  add\n  jump(tag_10)\ntag_11:\n  pop\n  swap1\n  jump\t// out\ntag_4:\n  dataSize(sub_0)\n  dup1\n  dataOffset(sub_0)\n  0x00\n  codecopy\n  0x00\n  return\nstop\n\nsub_0: assembly {\n        /* \"contracts/solidity_by_example/014_RemoveArray1.sol\":110:500  contract ArrayRemoveByShifting{\r... */\n      mstore(0x40, 0x80)\n      callvalue\n      dup1\n      iszero\n      tag_1\n      jumpi\n      0x00\n      dup1\n      revert\n    tag_1:\n      pop\n      jumpi(tag_2, lt(calldatasize, 0x04))\n      shr(0xe0, calldataload(0x00))\n      dup1\n      0x4cc82215\n      eq\n      tag_3\n      jumpi\n      dup1\n      0x6d4ce63c\n      eq\n      tag_4\n      jumpi\n      dup1\n      0x71e5ee5f\n      eq\n      tag_5\n      jumpi\n    tag_2:\n      0x00\n      dup1\n      revert\n        /* \"contracts/solidity_by_example/014_RemoveArray1.sol\":191:404  function remove(uint _i)public{\r... */\n    tag_3:\n      tag_6\n      0x04\n      dup1\n      calldatasize\n      sub\n      dup2\n      add\n      swap1\n      tag_7\n      swap2\n      swap1\n      tag_8\n      jump\t// in\n    tag_7:\n      tag_9\n      jump\t// in\n    tag_6:\n      stop\n        /* \"contracts/solidity_by_example/014_RemoveArray1.sol\":412:493  function get()public view returns(uint[] memory){\r... */\n    tag_4:\n      tag_10\n      tag_11\n      jump\t// in\n    tag_10:\n      mload(0x40)\n      tag_12\n      swap2\n      swap1\n      tag_13\n      jump\t// in\n    tag_12:\n      mload(0x40)\n      dup1\n      swap2\n      sub\n      swap1\n      return\n        /* \"contracts/solidity_by_example/014_RemoveArray1.sol\":149:182  uint[] public arr = [1,2,3,4,5,6] */\n    tag_5:\n      tag_14\n      0x04\n      dup1\n      calldatasize\n      sub\n      dup2\n      add\n      swap1\n      tag_15\n      swap2\n      swap1\n      tag_8\n      jump\t// in\n    tag_15:\n      tag_16\n      jump\t// in\n    tag_14:\n      mload(0x40)\n      tag_17\n      swap2\n      swap1\n      tag_18\n      jump\t// in\n    tag_17:\n      mload(0x40)\n      dup1\n      swap2\n      sub\n      swap1\n      return\n        /* \"contracts/solidity_by_example/014_RemoveArray1.sol\":191:404  function remove(uint _i)public{\r... */\n    tag_9:\n        /* \"contracts/solidity_by_example/014_RemoveArray1.sol\":245:248  arr */\n      0x00\n        /* \"contracts/solidity_by_example/014_RemoveArray1.sol\":245:255  arr.length */\n      dup1\n      sload\n      swap1\n      pop\n        /* \"contracts/solidity_by_example/014_RemoveArray1.sol\":240:242  _i */\n      dup2\n        /* \"contracts/solidity_by_example/014_RemoveArray1.sol\":240:255  _i < arr.length */\n      lt\n        /* \"contracts/solidity_by_example/014_RemoveArray1.sol\":232:276  require(_i < arr.length,\"this out of bound\") */\n      tag_20\n      jumpi\n      mload(0x40)\n      0x08c379a000000000000000000000000000000000000000000000000000000000\n      dup2\n      mstore\n      0x04\n      add\n      tag_21\n      swap1\n      tag_22\n      jump\t// in\n    tag_21:\n      mload(0x40)\n      dup1\n      swap2\n      sub\n      swap1\n      revert\n    tag_20:\n        /* \"contracts/solidity_by_example/014_RemoveArray1.sol\":293:299  uint i */\n      0x00\n        /* \"contracts/solidity_by_example/014_RemoveArray1.sol\":302:304  _i */\n      dup2\n        /* \"contracts/solidity_by_example/014_RemoveArray1.sol\":293:304  uint i = _i */\n      swap1\n      pop\n        /* \"contracts/solidity_by_example/014_RemoveArray1.sol\":289:377  for(uint i = _i;i < arr.length -1;i++){\r... */\n    tag_23:\n        /* \"contracts/solidity_by_example/014_RemoveArray1.sol\":321:322  1 */\n      0x01\n        /* \"contracts/solidity_by_example/014_RemoveArray1.sol\":309:312  arr */\n      0x00\n        /* \"contracts/solidity_by_example/014_RemoveArray1.sol\":309:319  arr.length */\n      dup1\n      sload\n      swap1\n      pop\n        /* \"contracts/solidity_by_example/014_RemoveArray1.sol\":309:322  arr.length -1 */\n      tag_26\n      swap2\n      swap1\n      tag_27\n      jump\t// in\n    tag_26:\n        /* \"contracts/solidity_by_example/014_RemoveArray1.sol\":305:306  i */\n      dup2\n        /* \"contracts/solidity_by_example/014_RemoveArray1.sol\":305:322  i < arr.length -1 */\n      lt\n        /* \"contracts/solidity_by_example/014_RemoveArray1.sol\":289:377  for(uint i = _i;i < arr.length -1;i++){\r... */\n      iszero\n      tag_24\n      jumpi\n        /* \"contracts/solidity_by_example/014_RemoveArray1.sol\":353:356  arr */\n      0x00\n        /* \"contracts/solidity_by_example/014_RemoveArray1.sol\":361:362  1 */\n      0x01\n        /* \"contracts/solidity_by_example/014_RemoveArray1.sol\":357:358  i */\n      dup3\n        /* \"contracts/solidity_by_example/014_RemoveArray1.sol\":357:362  i + 1 */\n      tag_28\n      swap2\n      swap1\n      tag_29\n      jump\t// in\n    tag_28:\n        /* \"contracts/solidity_by_example/014_RemoveArray1.sol\":353:363  arr[i + 1] */\n      dup2\n      sload\n      dup2\n      lt\n      tag_30\n      jumpi\n      tag_31\n      tag_32\n      jump\t// in\n    tag_31:\n    tag_30:\n      swap1\n      0x00\n      mstore\n      keccak256(0x00, 0x20)\n      add\n      sload\n        /* \"contracts/solidity_by_example/014_RemoveArray1.sol\":344:347  arr */\n      0x00\n        /* \"contracts/solidity_by_example/014_RemoveArray1.sol\":348:349  i */\n      dup3\n        /* \"contracts/solidity_by_example/014_RemoveArray1.sol\":344:350  arr[i] */\n      dup2\n      sload\n      dup2\n      lt\n      tag_34\n      jumpi\n      tag_35\n      tag_32\n      jump\t// in\n    tag_35:\n    tag_34:\n      swap1\n      0x00\n      mstore\n      keccak256(0x00, 0x20)\n      add\n        /* \"contracts/solidity_by_example/014_RemoveArray1.sol\":344:363  arr[i] = arr[i + 1] */\n      dup2\n      swap1\n      sstore\n      pop\n        /* \"contracts/solidity_by_example/014_RemoveArray1.sol\":323:326  i++ */\n      dup1\n      dup1\n      tag_37\n      swap1\n      tag_38\n      jump\t// in\n    tag_37:\n      swap2\n      pop\n      pop\n        /* \"contracts/solidity_by_example/014_RemoveArray1.sol\":289:377  for(uint i = _i;i < arr.length -1;i++){\r... */\n      jump(tag_23)\n    tag_24:\n      pop\n        /* \"contracts/solidity_by_example/014_RemoveArray1.sol\":387:390  arr */\n      0x00\n        /* \"contracts/solidity_by_example/014_RemoveArray1.sol\":387:396  arr.pop() */\n      dup1\n      sload\n      dup1\n      tag_39\n      jumpi\n      tag_40\n      tag_41\n      jump\t// in\n    tag_40:\n    tag_39:\n      0x01\n      swap1\n      sub\n      dup2\n      dup2\n      swap1\n      0x00\n      mstore\n      keccak256(0x00, 0x20)\n      add\n      0x00\n      swap1\n      sstore\n      swap1\n      sstore\n        /* \"contracts/solidity_by_example/014_RemoveArray1.sol\":191:404  function remove(uint _i)public{\r... */\n      pop\n      jump\t// out\n        /* \"contracts/solidity_by_example/014_RemoveArray1.sol\":412:493  function get()public view returns(uint[] memory){\r... */\n    tag_11:\n        /* \"contracts/solidity_by_example/014_RemoveArray1.sol\":446:459  uint[] memory */\n      0x60\n        /* \"contracts/solidity_by_example/014_RemoveArray1.sol\":480:483  arr */\n      0x00\n        /* \"contracts/solidity_by_example/014_RemoveArray1.sol\":473:483  return arr */\n      dup1\n      sload\n      dup1\n      0x20\n      mul\n      0x20\n      add\n      mload(0x40)\n      swap1\n      dup2\n      add\n      0x40\n      mstore\n      dup1\n      swap3\n      swap2\n      swap1\n      dup2\n      dup2\n      mstore\n      0x20\n      add\n      dup3\n      dup1\n      sload\n      dup1\n      iszero\n      tag_44\n      jumpi\n      0x20\n      mul\n      dup3\n      add\n      swap2\n      swap1\n      0x00\n      mstore\n      keccak256(0x00, 0x20)\n      swap1\n    tag_45:\n      dup2\n      sload\n      dup2\n      mstore\n      0x20\n      add\n      swap1\n      0x01\n      add\n      swap1\n      dup1\n      dup4\n      gt\n      tag_45\n      jumpi\n    tag_44:\n      pop\n      pop\n      pop\n      pop\n      pop\n      swap1\n      pop\n        /* \"contracts/solidity_by_example/014_RemoveArray1.sol\":412:493  function get()public view returns(uint[] memory){\r... */\n      swap1\n      jump\t// out\n        /* \"contracts/solidity_by_example/014_RemoveArray1.sol\":149:182  uint[] public arr = [1,2,3,4,5,6] */\n    tag_16:\n      0x00\n      dup2\n      dup2\n      sload\n      dup2\n      lt\n      tag_46\n      jumpi\n      0x00\n      dup1\n      revert\n    tag_46:\n      swap1\n      0x00\n      mstore\n      keccak256(0x00, 0x20)\n      add\n      0x00\n      swap2\n      pop\n      swap1\n      pop\n      sload\n      dup2\n      jump\t// out\n        /* \"#utility.yul\":7:146   */\n    tag_49:\n        /* \"#utility.yul\":53:58   */\n      0x00\n        /* \"#utility.yul\":91:97   */\n      dup2\n        /* \"#utility.yul\":78:98   */\n      calldataload\n        /* \"#utility.yul\":69:98   */\n      swap1\n      pop\n        /* \"#utility.yul\":107:140   */\n      tag_51\n        /* \"#utility.yul\":134:139   */\n      dup2\n        /* \"#utility.yul\":107:140   */\n      tag_52\n      jump\t// in\n    tag_51:\n        /* \"#utility.yul\":7:146   */\n      swap3\n      swap2\n      pop\n      pop\n      jump\t// out\n        /* \"#utility.yul\":152:481   */\n    tag_8:\n        /* \"#utility.yul\":211:217   */\n      0x00\n        /* \"#utility.yul\":260:262   */\n      0x20\n        /* \"#utility.yul\":248:257   */\n      dup3\n        /* \"#utility.yul\":239:246   */\n      dup5\n        /* \"#utility.yul\":235:258   */\n      sub\n        /* \"#utility.yul\":231:263   */\n      slt\n        /* \"#utility.yul\":228:347   */\n      iszero\n      tag_54\n      jumpi\n        /* \"#utility.yul\":266:345   */\n      tag_55\n      tag_56\n      jump\t// in\n    tag_55:\n        /* \"#utility.yul\":228:347   */\n    tag_54:\n        /* \"#utility.yul\":386:387   */\n      0x00\n        /* \"#utility.yul\":411:464   */\n      tag_57\n        /* \"#utility.yul\":456:463   */\n      dup5\n        /* \"#utility.yul\":447:453   */\n      dup3\n        /* \"#utility.yul\":436:445   */\n      dup6\n        /* \"#utility.yul\":432:454   */\n      add\n        /* \"#utility.yul\":411:464   */\n      tag_49\n      jump\t// in\n    tag_57:\n        /* \"#utility.yul\":401:464   */\n      swap2\n      pop\n        /* \"#utility.yul\":357:474   */\n      pop\n        /* \"#utility.yul\":152:481   */\n      swap3\n      swap2\n      pop\n      pop\n      jump\t// out\n        /* \"#utility.yul\":487:666   */\n    tag_58:\n        /* \"#utility.yul\":556:566   */\n      0x00\n        /* \"#utility.yul\":577:623   */\n      tag_60\n        /* \"#utility.yul\":619:622   */\n      dup4\n        /* \"#utility.yul\":611:617   */\n      dup4\n        /* \"#utility.yul\":577:623   */\n      tag_61\n      jump\t// in\n    tag_60:\n        /* \"#utility.yul\":655:659   */\n      0x20\n        /* \"#utility.yul\":650:653   */\n      dup4\n        /* \"#utility.yul\":646:660   */\n      add\n        /* \"#utility.yul\":632:660   */\n      swap1\n      pop\n        /* \"#utility.yul\":487:666   */\n      swap3\n      swap2\n      pop\n      pop\n      jump\t// out\n        /* \"#utility.yul\":702:1434   */\n    tag_62:\n        /* \"#utility.yul\":821:824   */\n      0x00\n        /* \"#utility.yul\":850:904   */\n      tag_64\n        /* \"#utility.yul\":898:903   */\n      dup3\n        /* \"#utility.yul\":850:904   */\n      tag_65\n      jump\t// in\n    tag_64:\n        /* \"#utility.yul\":920:1006   */\n      tag_66\n        /* \"#utility.yul\":999:1005   */\n      dup2\n        /* \"#utility.yul\":994:997   */\n      dup6\n        /* \"#utility.yul\":920:1006   */\n      tag_67\n      jump\t// in\n    tag_66:\n        /* \"#utility.yul\":913:1006   */\n      swap4\n      pop\n        /* \"#utility.yul\":1030:1086   */\n      tag_68\n        /* \"#utility.yul\":1080:1085   */\n      dup4\n        /* \"#utility.yul\":1030:1086   */\n      tag_69\n      jump\t// in\n    tag_68:\n        /* \"#utility.yul\":1109:1116   */\n      dup1\n        /* \"#utility.yul\":1140:1141   */\n      0x00\n        /* \"#utility.yul\":1125:1409   */\n    tag_70:\n        /* \"#utility.yul\":1150:1156   */\n      dup4\n        /* \"#utility.yul\":1147:1148   */\n      dup2\n        /* \"#utility.yul\":1144:1157   */\n      lt\n        /* \"#utility.yul\":1125:1409   */\n      iszero\n      tag_72\n      jumpi\n        /* \"#utility.yul\":1226:1232   */\n      dup2\n        /* \"#utility.yul\":1220:1233   */\n      mload\n        /* \"#utility.yul\":1253:1316   */\n      tag_73\n        /* \"#utility.yul\":1312:1315   */\n      dup9\n        /* \"#utility.yul\":1297:1310   */\n      dup3\n        /* \"#utility.yul\":1253:1316   */\n      tag_58\n      jump\t// in\n    tag_73:\n        /* \"#utility.yul\":1246:1316   */\n      swap8\n      pop\n        /* \"#utility.yul\":1339:1399   */\n      tag_74\n        /* \"#utility.yul\":1392:1398   */\n      dup4\n        /* \"#utility.yul\":1339:1399   */\n      tag_75\n      jump\t// in\n    tag_74:\n        /* \"#utility.yul\":1329:1399   */\n      swap3\n      pop\n        /* \"#utility.yul\":1185:1409   */\n      pop\n        /* \"#utility.yul\":1172:1173   */\n      0x01\n        /* \"#utility.yul\":1169:1170   */\n      dup2\n        /* \"#utility.yul\":1165:1174   */\n      add\n        /* \"#utility.yul\":1160:1174   */\n      swap1\n      pop\n        /* \"#utility.yul\":1125:1409   */\n      jump(tag_70)\n    tag_72:\n        /* \"#utility.yul\":1129:1143   */\n      pop\n        /* \"#utility.yul\":1425:1428   */\n      dup6\n        /* \"#utility.yul\":1418:1428   */\n      swap4\n      pop\n        /* \"#utility.yul\":826:1434   */\n      pop\n      pop\n      pop\n        /* \"#utility.yul\":702:1434   */\n      swap3\n      swap2\n      pop\n      pop\n      jump\t// out\n        /* \"#utility.yul\":1440:1806   */\n    tag_76:\n        /* \"#utility.yul\":1582:1585   */\n      0x00\n        /* \"#utility.yul\":1603:1670   */\n      tag_78\n        /* \"#utility.yul\":1667:1669   */\n      0x11\n        /* \"#utility.yul\":1662:1665   */\n      dup4\n        /* \"#utility.yul\":1603:1670   */\n      tag_79\n      jump\t// in\n    tag_78:\n        /* \"#utility.yul\":1596:1670   */\n      swap2\n      pop\n        /* \"#utility.yul\":1679:1772   */\n      tag_80\n        /* \"#utility.yul\":1768:1771   */\n      dup3\n        /* \"#utility.yul\":1679:1772   */\n      tag_81\n      jump\t// in\n    tag_80:\n        /* \"#utility.yul\":1797:1799   */\n      0x20\n        /* \"#utility.yul\":1792:1795   */\n      dup3\n        /* \"#utility.yul\":1788:1800   */\n      add\n        /* \"#utility.yul\":1781:1800   */\n      swap1\n      pop\n        /* \"#utility.yul\":1440:1806   */\n      swap2\n      swap1\n      pop\n      jump\t// out\n        /* \"#utility.yul\":1812:1920   */\n    tag_61:\n        /* \"#utility.yul\":1889:1913   */\n      tag_83\n        /* \"#utility.yul\":1907:1912   */\n      dup2\n        /* \"#utility.yul\":1889:1913   */\n      tag_84\n      jump\t// in\n    tag_83:\n        /* \"#utility.yul\":1884:1887   */\n      dup3\n        /* \"#utility.yul\":1877:1914   */\n      mstore\n        /* \"#utility.yul\":1812:1920   */\n      pop\n      pop\n      jump\t// out\n        /* \"#utility.yul\":1926:2044   */\n    tag_85:\n        /* \"#utility.yul\":2013:2037   */\n      tag_87\n        /* \"#utility.yul\":2031:2036   */\n      dup2\n        /* \"#utility.yul\":2013:2037   */\n      tag_84\n      jump\t// in\n    tag_87:\n        /* \"#utility.yul\":2008:2011   */\n      dup3\n        /* \"#utility.yul\":2001:2038   */\n      mstore\n        /* \"#utility.yul\":1926:2044   */\n      pop\n      pop\n      jump\t// out\n        /* \"#utility.yul\":2050:2423   */\n    tag_13:\n        /* \"#utility.yul\":2193:2197   */\n      0x00\n        /* \"#utility.yul\":2231:2233   */\n      0x20\n        /* \"#utility.yul\":2220:2229   */\n      dup3\n        /* \"#utility.yul\":2216:2234   */\n      add\n        /* \"#utility.yul\":2208:2234   */\n      swap1\n      pop\n        /* \"#utility.yul\":2280:2289   */\n      dup2\n        /* \"#utility.yul\":2274:2278   */\n      dup2\n        /* \"#utility.yul\":2270:2290   */\n      sub\n        /* \"#utility.yul\":2266:2267   */\n      0x00\n        /* \"#utility.yul\":2255:2264   */\n      dup4\n        /* \"#utility.yul\":2251:2268   */\n      add\n        /* \"#utility.yul\":2244:2291   */\n      mstore\n        /* \"#utility.yul\":2308:2416   */\n      tag_89\n        /* \"#utility.yul\":2411:2415   */\n      dup2\n        /* \"#utility.yul\":2402:2408   */\n      dup5\n        /* \"#utility.yul\":2308:2416   */\n      tag_62\n      jump\t// in\n    tag_89:\n        /* \"#utility.yul\":2300:2416   */\n      swap1\n      pop\n        /* \"#utility.yul\":2050:2423   */\n      swap3\n      swap2\n      pop\n      pop\n      jump\t// out\n        /* \"#utility.yul\":2429:2848   */\n    tag_22:\n        /* \"#utility.yul\":2595:2599   */\n      0x00\n        /* \"#utility.yul\":2633:2635   */\n      0x20\n        /* \"#utility.yul\":2622:2631   */\n      dup3\n        /* \"#utility.yul\":2618:2636   */\n      add\n        /* \"#utility.yul\":2610:2636   */\n      swap1\n      pop\n        /* \"#utility.yul\":2682:2691   */\n      dup2\n        /* \"#utility.yul\":2676:2680   */\n      dup2\n        /* \"#utility.yul\":2672:2692   */\n      sub\n        /* \"#utility.yul\":2668:2669   */\n      0x00\n        /* \"#utility.yul\":2657:2666   */\n      dup4\n        /* \"#utility.yul\":2653:2670   */\n      add\n        /* \"#utility.yul\":2646:2693   */\n      mstore\n        /* \"#utility.yul\":2710:2841   */\n      tag_91\n        /* \"#utility.yul\":2836:2840   */\n      dup2\n        /* \"#utility.yul\":2710:2841   */\n      tag_76\n      jump\t// in\n    tag_91:\n        /* \"#utility.yul\":2702:2841   */\n      swap1\n      pop\n        /* \"#utility.yul\":2429:2848   */\n      swap2\n      swap1\n      pop\n      jump\t// out\n        /* \"#utility.yul\":2854:3076   */\n    tag_18:\n        /* \"#utility.yul\":2947:2951   */\n      0x00\n        /* \"#utility.yul\":2985:2987   */\n      0x20\n        /* \"#utility.yul\":2974:2983   */\n      dup3\n        /* \"#utility.yul\":2970:2988   */\n      add\n        /* \"#utility.yul\":2962:2988   */\n      swap1\n      pop\n        /* \"#utility.yul\":2998:3069   */\n      tag_93\n        /* \"#utility.yul\":3066:3067   */\n      0x00\n        /* \"#utility.yul\":3055:3064   */\n      dup4\n        /* \"#utility.yul\":3051:3068   */\n      add\n        /* \"#utility.yul\":3042:3048   */\n      dup5\n        /* \"#utility.yul\":2998:3069   */\n      tag_85\n      jump\t// in\n    tag_93:\n        /* \"#utility.yul\":2854:3076   */\n      swap3\n      swap2\n      pop\n      pop\n      jump\t// out\n        /* \"#utility.yul\":3163:3295   */\n    tag_69:\n        /* \"#utility.yul\":3230:3234   */\n      0x00\n        /* \"#utility.yul\":3253:3256   */\n      dup2\n        /* \"#utility.yul\":3245:3256   */\n      swap1\n      pop\n        /* \"#utility.yul\":3283:3287   */\n      0x20\n        /* \"#utility.yul\":3278:3281   */\n      dup3\n        /* \"#utility.yul\":3274:3288   */\n      add\n        /* \"#utility.yul\":3266:3288   */\n      swap1\n      pop\n        /* \"#utility.yul\":3163:3295   */\n      swap2\n      swap1\n      pop\n      jump\t// out\n        /* \"#utility.yul\":3301:3415   */\n    tag_65:\n        /* \"#utility.yul\":3368:3374   */\n      0x00\n        /* \"#utility.yul\":3402:3407   */\n      dup2\n        /* \"#utility.yul\":3396:3408   */\n      mload\n        /* \"#utility.yul\":3386:3408   */\n      swap1\n      pop\n        /* \"#utility.yul\":3301:3415   */\n      swap2\n      swap1\n      pop\n      jump\t// out\n        /* \"#utility.yul\":3421:3534   */\n    tag_75:\n        /* \"#utility.yul\":3491:3495   */\n      0x00\n        /* \"#utility.yul\":3523:3527   */\n      0x20\n        /* \"#utility.yul\":3518:3521   */\n      dup3\n        /* \"#utility.yul\":3514:3528   */\n      add\n        /* \"#utility.yul\":3506:3528   */\n      swap1\n      pop\n        /* \"#utility.yul\":3421:3534   */\n      swap2\n      swap1\n      pop\n      jump\t// out\n        /* \"#utility.yul\":3540:3724   */\n    tag_67:\n        /* \"#utility.yul\":3639:3650   */\n      0x00\n        /* \"#utility.yul\":3673:3679   */\n      dup3\n        /* \"#utility.yul\":3668:3671   */\n      dup3\n        /* \"#utility.yul\":3661:3680   */\n      mstore\n        /* \"#utility.yul\":3713:3717   */\n      0x20\n        /* \"#utility.yul\":3708:3711   */\n      dup3\n        /* \"#utility.yul\":3704:3718   */\n      add\n        /* \"#utility.yul\":3689:3718   */\n      swap1\n      pop\n        /* \"#utility.yul\":3540:3724   */\n      swap3\n      swap2\n      pop\n      pop\n      jump\t// out\n        /* \"#utility.yul\":3730:3899   */\n    tag_79:\n        /* \"#utility.yul\":3814:3825   */\n      0x00\n        /* \"#utility.yul\":3848:3854   */\n      dup3\n        /* \"#utility.yul\":3843:3846   */\n      dup3\n        /* \"#utility.yul\":3836:3855   */\n      mstore\n        /* \"#utility.yul\":3888:3892   */\n      0x20\n        /* \"#utility.yul\":3883:3886   */\n      dup3\n        /* \"#utility.yul\":3879:3893   */\n      add\n        /* \"#utility.yul\":3864:3893   */\n      swap1\n      pop\n        /* \"#utility.yul\":3730:3899   */\n      swap3\n      swap2\n      pop\n      pop\n      jump\t// out\n        /* \"#utility.yul\":3905:4210   */\n    tag_29:\n        /* \"#utility.yul\":3945:3948   */\n      0x00\n        /* \"#utility.yul\":3964:3984   */\n      tag_102\n        /* \"#utility.yul\":3982:3983   */\n      dup3\n        /* \"#utility.yul\":3964:3984   */\n      tag_84\n      jump\t// in\n    tag_102:\n        /* \"#utility.yul\":3959:3984   */\n      swap2\n      pop\n        /* \"#utility.yul\":3998:4018   */\n      tag_103\n        /* \"#utility.yul\":4016:4017   */\n      dup4\n        /* \"#utility.yul\":3998:4018   */\n      tag_84\n      jump\t// in\n    tag_103:\n        /* \"#utility.yul\":3993:4018   */\n      swap3\n      pop\n        /* \"#utility.yul\":4152:4153   */\n      dup3\n        /* \"#utility.yul\":4084:4150   */\n      0xffffffffffffffffffffffffffffffffffffffffffffffffffffffffffffffff\n        /* \"#utility.yul\":4080:4154   */\n      sub\n        /* \"#utility.yul\":4077:4078   */\n      dup3\n        /* \"#utility.yul\":4074:4155   */\n      gt\n        /* \"#utility.yul\":4071:4178   */\n      iszero\n      tag_104\n      jumpi\n        /* \"#utility.yul\":4158:4176   */\n      tag_105\n      tag_106\n      jump\t// in\n    tag_105:\n        /* \"#utility.yul\":4071:4178   */\n    tag_104:\n        /* \"#utility.yul\":4202:4203   */\n      dup3\n        /* \"#utility.yul\":4199:4200   */\n      dup3\n        /* \"#utility.yul\":4195:4204   */\n      add\n        /* \"#utility.yul\":4188:4204   */\n      swap1\n      pop\n        /* \"#utility.yul\":3905:4210   */\n      swap3\n      swap2\n      pop\n      pop\n      jump\t// out\n        /* \"#utility.yul\":4216:4407   */\n    tag_27:\n        /* \"#utility.yul\":4256:4260   */\n      0x00\n        /* \"#utility.yul\":4276:4296   */\n      tag_108\n        /* \"#utility.yul\":4294:4295   */\n      dup3\n        /* \"#utility.yul\":4276:4296   */\n      tag_84\n      jump\t// in\n    tag_108:\n        /* \"#utility.yul\":4271:4296   */\n      swap2\n      pop\n        /* \"#utility.yul\":4310:4330   */\n      tag_109\n        /* \"#utility.yul\":4328:4329   */\n      dup4\n        /* \"#utility.yul\":4310:4330   */\n      tag_84\n      jump\t// in\n    tag_109:\n        /* \"#utility.yul\":4305:4330   */\n      swap3\n      pop\n        /* \"#utility.yul\":4349:4350   */\n      dup3\n        /* \"#utility.yul\":4346:4347   */\n      dup3\n        /* \"#utility.yul\":4343:4351   */\n      lt\n        /* \"#utility.yul\":4340:4374   */\n      iszero\n      tag_110\n      jumpi\n        /* \"#utility.yul\":4354:4372   */\n      tag_111\n      tag_106\n      jump\t// in\n    tag_111:\n        /* \"#utility.yul\":4340:4374   */\n    tag_110:\n        /* \"#utility.yul\":4399:4400   */\n      dup3\n        /* \"#utility.yul\":4396:4397   */\n      dup3\n        /* \"#utility.yul\":4392:4401   */\n      sub\n        /* \"#utility.yul\":4384:4401   */\n      swap1\n      pop\n        /* \"#utility.yul\":4216:4407   */\n      swap3\n      swap2\n      pop\n      pop\n      jump\t// out\n        /* \"#utility.yul\":4413:4490   */\n    tag_84:\n        /* \"#utility.yul\":4450:4457   */\n      0x00\n        /* \"#utility.yul\":4479:4484   */\n      dup2\n        /* \"#utility.yul\":4468:4484   */\n      swap1\n      pop\n        /* \"#utility.yul\":4413:4490   */\n      swap2\n      swap1\n      pop\n      jump\t// out\n        /* \"#utility.yul\":4496:4729   */\n    tag_38:\n        /* \"#utility.yul\":4535:4538   */\n      0x00\n        /* \"#utility.yul\":4558:4582   */\n      tag_114\n        /* \"#utility.yul\":4576:4581   */\n      dup3\n        /* \"#utility.yul\":4558:4582   */\n      tag_84\n      jump\t// in\n    tag_114:\n        /* \"#utility.yul\":4549:4582   */\n      swap2\n      pop\n        /* \"#utility.yul\":4604:4670   */\n      0xffffffffffffffffffffffffffffffffffffffffffffffffffffffffffffffff\n        /* \"#utility.yul\":4597:4602   */\n      dup3\n        /* \"#utility.yul\":4594:4671   */\n      eq\n        /* \"#utility.yul\":4591:4694   */\n      iszero\n      tag_115\n      jumpi\n        /* \"#utility.yul\":4674:4692   */\n      tag_116\n      tag_106\n      jump\t// in\n    tag_116:\n        /* \"#utility.yul\":4591:4694   */\n    tag_115:\n        /* \"#utility.yul\":4721:4722   */\n      0x01\n        /* \"#utility.yul\":4714:4719   */\n      dup3\n        /* \"#utility.yul\":4710:4723   */\n      add\n        /* \"#utility.yul\":4703:4723   */\n      swap1\n      pop\n        /* \"#utility.yul\":4496:4729   */\n      swap2\n      swap1\n      pop\n      jump\t// out\n        /* \"#utility.yul\":4735:4915   */\n    tag_106:\n        /* \"#utility.yul\":4783:4860   */\n      0x4e487b7100000000000000000000000000000000000000000000000000000000\n        /* \"#utility.yul\":4780:4781   */\n      0x00\n        /* \"#utility.yul\":4773:4861   */\n      mstore\n        /* \"#utility.yul\":4880:4884   */\n      0x11\n        /* \"#utility.yul\":4877:4878   */\n      0x04\n        /* \"#utility.yul\":4870:4885   */\n      mstore\n        /* \"#utility.yul\":4904:4908   */\n      0x24\n        /* \"#utility.yul\":4901:4902   */\n      0x00\n        /* \"#utility.yul\":4894:4909   */\n      revert\n        /* \"#utility.yul\":4921:5101   */\n    tag_41:\n        /* \"#utility.yul\":4969:5046   */\n      0x4e487b7100000000000000000000000000000000000000000000000000000000\n        /* \"#utility.yul\":4966:4967   */\n      0x00\n        /* \"#utility.yul\":4959:5047   */\n      mstore\n        /* \"#utility.yul\":5066:5070   */\n      0x31\n        /* \"#utility.yul\":5063:5064   */\n      0x04\n        /* \"#utility.yul\":5056:5071   */\n      mstore\n        /* \"#utility.yul\":5090:5094   */\n      0x24\n        /* \"#utility.yul\":5087:5088   */\n      0x00\n        /* \"#utility.yul\":5080:5095   */\n      revert\n        /* \"#utility.yul\":5107:5287   */\n    tag_32:\n        /* \"#utility.yul\":5155:5232   */\n      0x4e487b7100000000000000000000000000000000000000000000000000000000\n        /* \"#utility.yul\":5152:5153   */\n      0x00\n        /* \"#utility.yul\":5145:5233   */\n      mstore\n        /* \"#utility.yul\":5252:5256   */\n      0x32\n        /* \"#utility.yul\":5249:5250   */\n      0x04\n        /* \"#utility.yul\":5242:5257   */\n      mstore\n        /* \"#utility.yul\":5276:5280   */\n      0x24\n        /* \"#utility.yul\":5273:5274   */\n      0x00\n        /* \"#utility.yul\":5266:5281   */\n      revert\n        /* \"#utility.yul\":5416:5533   */\n    tag_56:\n        /* \"#utility.yul\":5525:5526   */\n      0x00\n        /* \"#utility.yul\":5522:5523   */\n      dup1\n        /* \"#utility.yul\":5515:5527   */\n      revert\n        /* \"#utility.yul\":5539:5706   */\n    tag_81:\n        /* \"#utility.yul\":5679:5698   */\n      0x74686973206f7574206f6620626f756e64000000000000000000000000000000\n        /* \"#utility.yul\":5675:5676   */\n      0x00\n        /* \"#utility.yul\":5667:5673   */\n      dup3\n        /* \"#utility.yul\":5663:5677   */\n      add\n        /* \"#utility.yul\":5656:5699   */\n      mstore\n        /* \"#utility.yul\":5539:5706   */\n      pop\n      jump\t// out\n        /* \"#utility.yul\":5712:5834   */\n    tag_52:\n        /* \"#utility.yul\":5785:5809   */\n      tag_125\n        /* \"#utility.yul\":5803:5808   */\n      dup2\n        /* \"#utility.yul\":5785:5809   */\n      tag_84\n      jump\t// in\n    tag_125:\n        /* \"#utility.yul\":5778:5783   */\n      dup2\n        /* \"#utility.yul\":5775:5810   */\n      eq\n        /* \"#utility.yul\":5765:5828   */\n      tag_126\n      jumpi\n        /* \"#utility.yul\":5824:5825   */\n      0x00\n        /* \"#utility.yul\":5821:5822   */\n      dup1\n        /* \"#utility.yul\":5814:5826   */\n      revert\n        /* \"#utility.yul\":5765:5828   */\n    tag_126:\n        /* \"#utility.yul\":5712:5834   */\n      pop\n      jump\t// out\n\n    auxdata: 0xa2646970667358221220374f1542e82e036fc8e31d98e0fd95aea6b9602cf926f27a014385476751e5b964736f6c63430008070033\n}\n",
				"bytecode": {
					"linkReferences": {},
					"object": "60806040526040518060c00160405280600160ff168152602001600260ff168152602001600360ff168152602001600460ff168152602001600560ff168152602001600660ff16815250600090600661005992919061006c565b5034801561006657600080fd5b506100db565b8280548282559060005260206000209081019282156100ad579160200282015b828111156100ac578251829060ff1690559160200191906001019061008c565b5b5090506100ba91906100be565b5090565b5b808211156100d75760008160009055506001016100bf565b5090565b6105a3806100ea6000396000f3fe608060405234801561001057600080fd5b50600436106100415760003560e01c80634cc82215146100465780636d4ce63c1461006257806371e5ee5f14610080575b600080fd5b610060600480360381019061005b9190610233565b6100b0565b005b61006a6101a2565b6040516100779190610317565b60405180910390f35b61009a60048036038101906100959190610233565b6101fa565b6040516100a79190610359565b60405180910390f35b60008054905081106100f7576040517f08c379a00000000000000000000000000000000000000000000000000000000081526004016100ee90610339565b60405180910390fd5b60008190505b600160008054905061010f9190610414565b81101561017657600060018261012591906103be565b81548110610136576101356104f9565b5b906000526020600020015460008281548110610155576101546104f9565b5b9060005260206000200181905550808061016e90610452565b9150506100fd565b506000805480610189576101886104ca565b5b6001900381819060005260206000200160009055905550565b606060008054806020026020016040519081016040528092919081815260200182805480156101f057602002820191906000526020600020905b8154815260200190600101908083116101dc575b5050505050905090565b6000818154811061020a57600080fd5b906000526020600020016000915090505481565b60008135905061022d81610556565b92915050565b60006020828403121561024957610248610528565b5b60006102578482850161021e565b91505092915050565b600061026c83836102f9565b60208301905092915050565b600061028382610384565b61028d818561039c565b935061029883610374565b8060005b838110156102c95781516102b08882610260565b97506102bb8361038f565b92505060018101905061029c565b5085935050505092915050565b60006102e36011836103ad565b91506102ee8261052d565b602082019050919050565b61030281610448565b82525050565b61031181610448565b82525050565b600060208201905081810360008301526103318184610278565b905092915050565b60006020820190508181036000830152610352816102d6565b9050919050565b600060208201905061036e6000830184610308565b92915050565b6000819050602082019050919050565b600081519050919050565b6000602082019050919050565b600082825260208201905092915050565b600082825260208201905092915050565b60006103c982610448565b91506103d483610448565b9250827fffffffffffffffffffffffffffffffffffffffffffffffffffffffffffffffff038211156104095761040861049b565b5b828201905092915050565b600061041f82610448565b915061042a83610448565b92508282101561043d5761043c61049b565b5b828203905092915050565b6000819050919050565b600061045d82610448565b91507fffffffffffffffffffffffffffffffffffffffffffffffffffffffffffffffff8214156104905761048f61049b565b5b600182019050919050565b7f4e487b7100000000000000000000000000000000000000000000000000000000600052601160045260246000fd5b7f4e487b7100000000000000000000000000000000000000000000000000000000600052603160045260246000fd5b7f4e487b7100000000000000000000000000000000000000000000000000000000600052603260045260246000fd5b600080fd5b7f74686973206f7574206f6620626f756e64000000000000000000000000000000600082015250565b61055f81610448565b811461056a57600080fd5b5056fea2646970667358221220374f1542e82e036fc8e31d98e0fd95aea6b9602cf926f27a014385476751e5b964736f6c63430008070033",
					"opcodes": "PUSH1 0x80 PUSH1 0x40 MSTORE PUSH1 0x40 MLOAD DUP1 PUSH1 0xC0 ADD PUSH1 0x40 MSTORE DUP1 PUSH1 0x1 PUSH1 0xFF AND DUP2 MSTORE PUSH1 0x20 ADD PUSH1 0x2 PUSH1 0xFF AND DUP2 MSTORE PUSH1 0x20 ADD PUSH1 0x3 PUSH1 0xFF AND DUP2 MSTORE PUSH1 0x20 ADD PUSH1 0x4 PUSH1 0xFF AND DUP2 MSTORE PUSH1 0x20 ADD PUSH1 0x5 PUSH1 0xFF AND DUP2 MSTORE PUSH1 0x20 ADD PUSH1 0x6 PUSH1 0xFF AND DUP2 MSTORE POP PUSH1 0x0 SWAP1 PUSH1 0x6 PUSH2 0x59 SWAP3 SWAP2 SWAP1 PUSH2 0x6C JUMP JUMPDEST POP CALLVALUE DUP1 ISZERO PUSH2 0x66 JUMPI PUSH1 0x0 DUP1 REVERT JUMPDEST POP PUSH2 0xDB JUMP JUMPDEST DUP3 DUP1 SLOAD DUP3 DUP3 SSTORE SWAP1 PUSH1 0x0 MSTORE PUSH1 0x20 PUSH1 0x0 KECCAK256 SWAP1 DUP2 ADD SWAP3 DUP3 ISZERO PUSH2 0xAD JUMPI SWAP2 PUSH1 0x20 MUL DUP3 ADD JUMPDEST DUP3 DUP2 GT ISZERO PUSH2 0xAC JUMPI DUP3 MLOAD DUP3 SWAP1 PUSH1 0xFF AND SWAP1 SSTORE SWAP2 PUSH1 0x20 ADD SWAP2 SWAP1 PUSH1 0x1 ADD SWAP1 PUSH2 0x8C JUMP JUMPDEST JUMPDEST POP SWAP1 POP PUSH2 0xBA SWAP2 SWAP1 PUSH2 0xBE JUMP JUMPDEST POP SWAP1 JUMP JUMPDEST JUMPDEST DUP1 DUP3 GT ISZERO PUSH2 0xD7 JUMPI PUSH1 0x0 DUP2 PUSH1 0x0 SWAP1 SSTORE POP PUSH1 0x1 ADD PUSH2 0xBF JUMP JUMPDEST POP SWAP1 JUMP JUMPDEST PUSH2 0x5A3 DUP1 PUSH2 0xEA PUSH1 0x0 CODECOPY PUSH1 0x0 RETURN INVALID PUSH1 0x80 PUSH1 0x40 MSTORE CALLVALUE DUP1 ISZERO PUSH2 0x10 JUMPI PUSH1 0x0 DUP1 REVERT JUMPDEST POP PUSH1 0x4 CALLDATASIZE LT PUSH2 0x41 JUMPI PUSH1 0x0 CALLDATALOAD PUSH1 0xE0 SHR DUP1 PUSH4 0x4CC82215 EQ PUSH2 0x46 JUMPI DUP1 PUSH4 0x6D4CE63C EQ PUSH2 0x62 JUMPI DUP1 PUSH4 0x71E5EE5F EQ PUSH2 0x80 JUMPI JUMPDEST PUSH1 0x0 DUP1 REVERT JUMPDEST PUSH2 0x60 PUSH1 0x4 DUP1 CALLDATASIZE SUB DUP2 ADD SWAP1 PUSH2 0x5B SWAP2 SWAP1 PUSH2 0x233 JUMP JUMPDEST PUSH2 0xB0 JUMP JUMPDEST STOP JUMPDEST PUSH2 0x6A PUSH2 0x1A2 JUMP JUMPDEST PUSH1 0x40 MLOAD PUSH2 0x77 SWAP2 SWAP1 PUSH2 0x317 JUMP JUMPDEST PUSH1 0x40 MLOAD DUP1 SWAP2 SUB SWAP1 RETURN JUMPDEST PUSH2 0x9A PUSH1 0x4 DUP1 CALLDATASIZE SUB DUP2 ADD SWAP1 PUSH2 0x95 SWAP2 SWAP1 PUSH2 0x233 JUMP JUMPDEST PUSH2 0x1FA JUMP JUMPDEST PUSH1 0x40 MLOAD PUSH2 0xA7 SWAP2 SWAP1 PUSH2 0x359 JUMP JUMPDEST PUSH1 0x40 MLOAD DUP1 SWAP2 SUB SWAP1 RETURN JUMPDEST PUSH1 0x0 DUP1 SLOAD SWAP1 POP DUP2 LT PUSH2 0xF7 JUMPI PUSH1 0x40 MLOAD PUSH32 0x8C379A000000000000000000000000000000000000000000000000000000000 DUP2 MSTORE PUSH1 0x4 ADD PUSH2 0xEE SWAP1 PUSH2 0x339 JUMP JUMPDEST PUSH1 0x40 MLOAD DUP1 SWAP2 SUB SWAP1 REVERT JUMPDEST PUSH1 0x0 DUP2 SWAP1 POP JUMPDEST PUSH1 0x1 PUSH1 0x0 DUP1 SLOAD SWAP1 POP PUSH2 0x10F SWAP2 SWAP1 PUSH2 0x414 JUMP JUMPDEST DUP2 LT ISZERO PUSH2 0x176 JUMPI PUSH1 0x0 PUSH1 0x1 DUP3 PUSH2 0x125 SWAP2 SWAP1 PUSH2 0x3BE JUMP JUMPDEST DUP2 SLOAD DUP2 LT PUSH2 0x136 JUMPI PUSH2 0x135 PUSH2 0x4F9 JUMP JUMPDEST JUMPDEST SWAP1 PUSH1 0x0 MSTORE PUSH1 0x20 PUSH1 0x0 KECCAK256 ADD SLOAD PUSH1 0x0 DUP3 DUP2 SLOAD DUP2 LT PUSH2 0x155 JUMPI PUSH2 0x154 PUSH2 0x4F9 JUMP JUMPDEST JUMPDEST SWAP1 PUSH1 0x0 MSTORE PUSH1 0x20 PUSH1 0x0 KECCAK256 ADD DUP2 SWAP1 SSTORE POP DUP1 DUP1 PUSH2 0x16E SWAP1 PUSH2 0x452 JUMP JUMPDEST SWAP2 POP POP PUSH2 0xFD JUMP JUMPDEST POP PUSH1 0x0 DUP1 SLOAD DUP1 PUSH2 0x189 JUMPI PUSH2 0x188 PUSH2 0x4CA JUMP JUMPDEST JUMPDEST PUSH1 0x1 SWAP1 SUB DUP2 DUP2 SWAP1 PUSH1 0x0 MSTORE PUSH1 0x20 PUSH1 0x0 KECCAK256 ADD PUSH1 0x0 SWAP1 SSTORE SWAP1 SSTORE POP JUMP JUMPDEST PUSH1 0x60 PUSH1 0x0 DUP1 SLOAD DUP1 PUSH1 0x20 MUL PUSH1 0x20 ADD PUSH1 0x40 MLOAD SWAP1 DUP2 ADD PUSH1 0x40 MSTORE DUP1 SWAP3 SWAP2 SWAP1 DUP2 DUP2 MSTORE PUSH1 0x20 ADD DUP3 DUP1 SLOAD DUP1 ISZERO PUSH2 0x1F0 JUMPI PUSH1 0x20 MUL DUP3 ADD SWAP2 SWAP1 PUSH1 0x0 MSTORE PUSH1 0x20 PUSH1 0x0 KECCAK256 SWAP1 JUMPDEST DUP2 SLOAD DUP2 MSTORE PUSH1 0x20 ADD SWAP1 PUSH1 0x1 ADD SWAP1 DUP1 DUP4 GT PUSH2 0x1DC JUMPI JUMPDEST POP POP POP POP POP SWAP1 POP SWAP1 JUMP JUMPDEST PUSH1 0x0 DUP2 DUP2 SLOAD DUP2 LT PUSH2 0x20A JUMPI PUSH1 0x0 DUP1 REVERT JUMPDEST SWAP1 PUSH1 0x0 MSTORE PUSH1 0x20 PUSH1 0x0 KECCAK256 ADD PUSH1 0x0 SWAP2 POP SWAP1 POP SLOAD DUP2 JUMP JUMPDEST PUSH1 0x0 DUP2 CALLDATALOAD SWAP1 POP PUSH2 0x22D DUP2 PUSH2 0x556 JUMP JUMPDEST SWAP3 SWAP2 POP POP JUMP JUMPDEST PUSH1 0x0 PUSH1 0x20 DUP3 DUP5 SUB SLT ISZERO PUSH2 0x249 JUMPI PUSH2 0x248 PUSH2 0x528 JUMP JUMPDEST JUMPDEST PUSH1 0x0 PUSH2 0x257 DUP5 DUP3 DUP6 ADD PUSH2 0x21E JUMP JUMPDEST SWAP2 POP POP SWAP3 SWAP2 POP POP JUMP JUMPDEST PUSH1 0x0 PUSH2 0x26C DUP4 DUP4 PUSH2 0x2F9 JUMP JUMPDEST PUSH1 0x20 DUP4 ADD SWAP1 POP SWAP3 SWAP2 POP POP JUMP JUMPDEST PUSH1 0x0 PUSH2 0x283 DUP3 PUSH2 0x384 JUMP JUMPDEST PUSH2 0x28D DUP2 DUP6 PUSH2 0x39C JUMP JUMPDEST SWAP4 POP PUSH2 0x298 DUP4 PUSH2 0x374 JUMP JUMPDEST DUP1 PUSH1 0x0 JUMPDEST DUP4 DUP2 LT ISZERO PUSH2 0x2C9 JUMPI DUP2 MLOAD PUSH2 0x2B0 DUP9 DUP3 PUSH2 0x260 JUMP JUMPDEST SWAP8 POP PUSH2 0x2BB DUP4 PUSH2 0x38F JUMP JUMPDEST SWAP3 POP POP PUSH1 0x1 DUP2 ADD SWAP1 POP PUSH2 0x29C JUMP JUMPDEST POP DUP6 SWAP4 POP POP POP POP SWAP3 SWAP2 POP POP JUMP JUMPDEST PUSH1 0x0 PUSH2 0x2E3 PUSH1 0x11 DUP4 PUSH2 0x3AD JUMP JUMPDEST SWAP2 POP PUSH2 0x2EE DUP3 PUSH2 0x52D JUMP JUMPDEST PUSH1 0x20 DUP3 ADD SWAP1 POP SWAP2 SWAP1 POP JUMP JUMPDEST PUSH2 0x302 DUP2 PUSH2 0x448 JUMP JUMPDEST DUP3 MSTORE POP POP JUMP JUMPDEST PUSH2 0x311 DUP2 PUSH2 0x448 JUMP JUMPDEST DUP3 MSTORE POP POP JUMP JUMPDEST PUSH1 0x0 PUSH1 0x20 DUP3 ADD SWAP1 POP DUP2 DUP2 SUB PUSH1 0x0 DUP4 ADD MSTORE PUSH2 0x331 DUP2 DUP5 PUSH2 0x278 JUMP JUMPDEST SWAP1 POP SWAP3 SWAP2 POP POP JUMP JUMPDEST PUSH1 0x0 PUSH1 0x20 DUP3 ADD SWAP1 POP DUP2 DUP2 SUB PUSH1 0x0 DUP4 ADD MSTORE PUSH2 0x352 DUP2 PUSH2 0x2D6 JUMP JUMPDEST SWAP1 POP SWAP2 SWAP1 POP JUMP JUMPDEST PUSH1 0x0 PUSH1 0x20 DUP3 ADD SWAP1 POP PUSH2 0x36E PUSH1 0x0 DUP4 ADD DUP5 PUSH2 0x308 JUMP JUMPDEST SWAP3 SWAP2 POP POP JUMP JUMPDEST PUSH1 0x0 DUP2 SWAP1 POP PUSH1 0x20 DUP3 ADD SWAP1 POP SWAP2 SWAP1 POP JUMP JUMPDEST PUSH1 0x0 DUP2 MLOAD SWAP1 POP SWAP2 SWAP1 POP JUMP JUMPDEST PUSH1 0x0 PUSH1 0x20 DUP3 ADD SWAP1 POP SWAP2 SWAP1 POP JUMP JUMPDEST PUSH1 0x0 DUP3 DUP3 MSTORE PUSH1 0x20 DUP3 ADD SWAP1 POP SWAP3 SWAP2 POP POP JUMP JUMPDEST PUSH1 0x0 DUP3 DUP3 MSTORE PUSH1 0x20 DUP3 ADD SWAP1 POP SWAP3 SWAP2 POP POP JUMP JUMPDEST PUSH1 0x0 PUSH2 0x3C9 DUP3 PUSH2 0x448 JUMP JUMPDEST SWAP2 POP PUSH2 0x3D4 DUP4 PUSH2 0x448 JUMP JUMPDEST SWAP3 POP DUP3 PUSH32 0xFFFFFFFFFFFFFFFFFFFFFFFFFFFFFFFFFFFFFFFFFFFFFFFFFFFFFFFFFFFFFFFF SUB DUP3 GT ISZERO PUSH2 0x409 JUMPI PUSH2 0x408 PUSH2 0x49B JUMP JUMPDEST JUMPDEST DUP3 DUP3 ADD SWAP1 POP SWAP3 SWAP2 POP POP JUMP JUMPDEST PUSH1 0x0 PUSH2 0x41F DUP3 PUSH2 0x448 JUMP JUMPDEST SWAP2 POP PUSH2 0x42A DUP4 PUSH2 0x448 JUMP JUMPDEST SWAP3 POP DUP3 DUP3 LT ISZERO PUSH2 0x43D JUMPI PUSH2 0x43C PUSH2 0x49B JUMP JUMPDEST JUMPDEST DUP3 DUP3 SUB SWAP1 POP SWAP3 SWAP2 POP POP JUMP JUMPDEST PUSH1 0x0 DUP2 SWAP1 POP SWAP2 SWAP1 POP JUMP JUMPDEST PUSH1 0x0 PUSH2 0x45D DUP3 PUSH2 0x448 JUMP JUMPDEST SWAP2 POP PUSH32 0xFFFFFFFFFFFFFFFFFFFFFFFFFFFFFFFFFFFFFFFFFFFFFFFFFFFFFFFFFFFFFFFF DUP3 EQ ISZERO PUSH2 0x490 JUMPI PUSH2 0x48F PUSH2 0x49B JUMP JUMPDEST JUMPDEST PUSH1 0x1 DUP3 ADD SWAP1 POP SWAP2 SWAP1 POP JUMP JUMPDEST PUSH32 0x4E487B7100000000000000000000000000000000000000000000000000000000 PUSH1 0x0 MSTORE PUSH1 0x11 PUSH1 0x4 MSTORE PUSH1 0x24 PUSH1 0x0 REVERT JUMPDEST PUSH32 0x4E487B7100000000000000000000000000000000000000000000000000000000 PUSH1 0x0 MSTORE PUSH1 0x31 PUSH1 0x4 MSTORE PUSH1 0x24 PUSH1 0x0 REVERT JUMPDEST PUSH32 0x4E487B7100000000000000000000000000000000000000000000000000000000 PUSH1 0x0 MSTORE PUSH1 0x32 PUSH1 0x4 MSTORE PUSH1 0x24 PUSH1 0x0 REVERT JUMPDEST PUSH1 0x0 DUP1 REVERT JUMPDEST PUSH32 0x74686973206F7574206F6620626F756E64000000000000000000000000000000 PUSH1 0x0 DUP3 ADD MSTORE POP JUMP JUMPDEST PUSH2 0x55F DUP2 PUSH2 0x448 JUMP JUMPDEST DUP2 EQ PUSH2 0x56A JUMPI PUSH1 0x0 DUP1 REVERT JUMPDEST POP JUMP INVALID LOG2 PUSH5 0x6970667358 0x22 SLT KECCAK256 CALLDATACOPY 0x4F ISZERO TIMESTAMP 0xE8 0x2E SUB PUSH16 0xC8E31D98E0FD95AEA6B9602CF926F27A ADD NUMBER DUP6 SELFBALANCE PUSH8 0x51E5B964736F6C63 NUMBER STOP ADDMOD SMOD STOP CALLER "
				},
				"gasEstimates": {
					"creation": {
						"codeDepositCost": "288600",
						"executionCost": "infinite",
						"totalCost": "infinite"
					},
					"external": {
						"arr(uint256)": "infinite",
						"get()": "infinite",
						"remove(uint256)": "infinite"
					}
				},
				"methodIdentifiers": {
					"arr(uint256)": "71e5ee5f",
					"get()": "6d4ce63c",
					"remove(uint256)": "4cc82215"
				}
			},
			"storageLayout": {
				"storage": [
					{
						"astId": 11,
						"contract": "contracts/solidity_by_example/014_RemoveArray1.sol:ArrayRemoveByShifting",
						"label": "arr",
						"offset": 0,
						"slot": "0",
						"type": "t_array(t_uint256)dyn_storage"
					}
				],
				"types": {
					"t_array(t_uint256)dyn_storage": {
						"base": "t_uint256",
						"encoding": "dynamic_array",
						"label": "uint256[]",
						"numberOfBytes": "32"
					},
					"t_uint256": {
						"encoding": "inplace",
						"label": "uint256",
						"numberOfBytes": "32"
					}
				}
			},
			"userdoc": {
				"kind": "user",
				"methods": {},
				"version": 1
			}
		}
	}
}